{
  "address": "0xcB38deA1Fed0cE30841dcF93860F0B04AB819D9f",
  "abi": [
    {
      "inputs": [
        {
          "internalType": "string",
          "name": "name",
          "type": "string"
        },
        {
          "internalType": "string",
          "name": "symbol",
          "type": "string"
        },
        {
          "internalType": "uint256",
          "name": "initialSupply",
          "type": "uint256"
        },
        {
          "internalType": "address",
          "name": "owner",
          "type": "address"
        }
      ],
      "name": "createToken",
      "outputs": [
        {
          "internalType": "address",
          "name": "",
          "type": "address"
        }
      ],
      "stateMutability": "nonpayable",
      "type": "function"
    }
  ],
  "transactionHash": "0xf978f1fb3620bb77943b86ce280421dc467ad90051cdeb7b6ce84d1b819410ef",
  "args": [],
  "numDeployments": 1,
  "solcInputHash": "7b5f8488a18f8708d842cbc7685d86e8",
  "bytecode": "0x608060405234801561001057600080fd5b50611091806100206000396000f3fe608060405234801561001057600080fd5b506004361061002b5760003560e01c806334f359f914610030575b600080fd5b61004361003e366004610156565b61005f565b6040516001600160a01b03909116815260200160405180910390f35b60008085858585604051610072906100a6565b61007f9493929190610228565b604051809103906000f08015801561009b573d6000803e3d6000fd5b509695505050505050565b610dec8061027083390190565b634e487b7160e01b600052604160045260246000fd5b600082601f8301126100da57600080fd5b813567ffffffffffffffff808211156100f5576100f56100b3565b604051601f8301601f19908116603f0116810190828211818310171561011d5761011d6100b3565b8160405283815286602085880101111561013657600080fd5b836020870160208301376000602085830101528094505050505092915050565b6000806000806080858703121561016c57600080fd5b843567ffffffffffffffff8082111561018457600080fd5b610190888389016100c9565b955060208701359150808211156101a657600080fd5b506101b3878288016100c9565b9350506040850135915060608501356001600160a01b03811681146101d757600080fd5b939692955090935050565b6000815180845260005b81811015610208576020818501810151868301820152016101ec565b506000602082860101526020601f19601f83011685010191505092915050565b60808152600061023b60808301876101e2565b828103602084015261024d81876101e2565b604084019590955250506001600160a01b03919091166060909101529291505056fe60806040523480156200001157600080fd5b5060405162000dec38038062000dec833981016040819052620000349162000202565b8383600362000044838262000325565b50600462000053828262000325565b5050506200006881836200007260201b60201c565b5050505062000419565b6001600160a01b038216620000cd5760405162461bcd60e51b815260206004820152601f60248201527f45524332303a206d696e7420746f20746865207a65726f206164647265737300604482015260640160405180910390fd5b8060026000828254620000e19190620003f1565b90915550506001600160a01b038216600081815260208181526040808320805486019055518481527fddf252ad1be2c89b69c2b068fc378daa952ba7f163c4a11628f55a4df523b3ef910160405180910390a35050565b505050565b634e487b7160e01b600052604160045260246000fd5b600082601f8301126200016557600080fd5b81516001600160401b03808211156200018257620001826200013d565b604051601f8301601f19908116603f01168101908282118183101715620001ad57620001ad6200013d565b81604052838152602092508683858801011115620001ca57600080fd5b600091505b83821015620001ee5785820183015181830184015290820190620001cf565b600093810190920192909252949350505050565b600080600080608085870312156200021957600080fd5b84516001600160401b03808211156200023157600080fd5b6200023f8883890162000153565b955060208701519150808211156200025657600080fd5b50620002658782880162000153565b60408701516060880151919550935090506001600160a01b03811681146200028c57600080fd5b939692955090935050565b600181811c90821680620002ac57607f821691505b602082108103620002cd57634e487b7160e01b600052602260045260246000fd5b50919050565b601f8211156200013857600081815260208120601f850160051c81016020861015620002fc5750805b601f850160051c820191505b818110156200031d5782815560010162000308565b505050505050565b81516001600160401b038111156200034157620003416200013d565b620003598162000352845462000297565b84620002d3565b602080601f831160018114620003915760008415620003785750858301515b600019600386901b1c1916600185901b1785556200031d565b600085815260208120601f198616915b82811015620003c257888601518255948401946001909101908401620003a1565b5085821015620003e15787850151600019600388901b60f8161c191681555b5050505050600190811b01905550565b808201808211156200041357634e487b7160e01b600052601160045260246000fd5b92915050565b6109c380620004296000396000f3fe608060405234801561001057600080fd5b50600436106100b45760003560e01c806342966c681161007157806342966c681461014157806370a082311461015657806395d89b411461017f578063a457c2d714610187578063a9059cbb1461019a578063dd62ed3e146101ad57600080fd5b806306fdde03146100b9578063095ea7b3146100d757806318160ddd146100fa57806323b872dd1461010c578063313ce5671461011f578063395093511461012e575b600080fd5b6100c16101c0565b6040516100ce91906107f4565b60405180910390f35b6100ea6100e536600461085e565b610252565b60405190151581526020016100ce565b6002545b6040519081526020016100ce565b6100ea61011a366004610888565b61026c565b604051601281526020016100ce565b6100ea61013c36600461085e565b610290565b61015461014f3660046108c4565b6102b2565b005b6100fe6101643660046108dd565b6001600160a01b031660009081526020819052604090205490565b6100c16102bf565b6100ea61019536600461085e565b6102ce565b6100ea6101a836600461085e565b61034e565b6100fe6101bb3660046108ff565b61035c565b6060600380546101cf90610932565b80601f01602080910402602001604051908101604052809291908181526020018280546101fb90610932565b80156102485780601f1061021d57610100808354040283529160200191610248565b820191906000526020600020905b81548152906001019060200180831161022b57829003601f168201915b5050505050905090565b600033610260818585610387565b60019150505b92915050565b60003361027a8582856104ac565b610285858585610526565b506001949350505050565b6000336102608185856102a3838361035c565b6102ad919061096c565b610387565b6102bc33826106ca565b50565b6060600480546101cf90610932565b600033816102dc828661035c565b9050838110156103415760405162461bcd60e51b815260206004820152602560248201527f45524332303a2064656372656173656420616c6c6f77616e63652062656c6f77604482015264207a65726f60d81b60648201526084015b60405180910390fd5b6102858286868403610387565b600033610260818585610526565b6001600160a01b03918216600090815260016020908152604080832093909416825291909152205490565b6001600160a01b0383166103e95760405162461bcd60e51b8152602060048201526024808201527f45524332303a20617070726f76652066726f6d20746865207a65726f206164646044820152637265737360e01b6064820152608401610338565b6001600160a01b03821661044a5760405162461bcd60e51b815260206004820152602260248201527f45524332303a20617070726f766520746f20746865207a65726f206164647265604482015261737360f01b6064820152608401610338565b6001600160a01b0383811660008181526001602090815260408083209487168084529482529182902085905590518481527f8c5be1e5ebec7d5bd14f71427d1e84f3dd0314c0f7b2291e5b200ac8c7c3b92591015b60405180910390a3505050565b60006104b8848461035c565b9050600019811461052057818110156105135760405162461bcd60e51b815260206004820152601d60248201527f45524332303a20696e73756666696369656e7420616c6c6f77616e63650000006044820152606401610338565b6105208484848403610387565b50505050565b6001600160a01b03831661058a5760405162461bcd60e51b815260206004820152602560248201527f45524332303a207472616e736665722066726f6d20746865207a65726f206164604482015264647265737360d81b6064820152608401610338565b6001600160a01b0382166105ec5760405162461bcd60e51b815260206004820152602360248201527f45524332303a207472616e7366657220746f20746865207a65726f206164647260448201526265737360e81b6064820152608401610338565b6001600160a01b038316600090815260208190526040902054818110156106645760405162461bcd60e51b815260206004820152602660248201527f45524332303a207472616e7366657220616d6f756e7420657863656564732062604482015265616c616e636560d01b6064820152608401610338565b6001600160a01b03848116600081815260208181526040808320878703905593871680835291849020805487019055925185815290927fddf252ad1be2c89b69c2b068fc378daa952ba7f163c4a11628f55a4df523b3ef910160405180910390a3610520565b6001600160a01b03821661072a5760405162461bcd60e51b815260206004820152602160248201527f45524332303a206275726e2066726f6d20746865207a65726f206164647265736044820152607360f81b6064820152608401610338565b6001600160a01b0382166000908152602081905260409020548181101561079e5760405162461bcd60e51b815260206004820152602260248201527f45524332303a206275726e20616d6f756e7420657863656564732062616c616e604482015261636560f01b6064820152608401610338565b6001600160a01b0383166000818152602081815260408083208686039055600280548790039055518581529192917fddf252ad1be2c89b69c2b068fc378daa952ba7f163c4a11628f55a4df523b3ef910161049f565b600060208083528351808285015260005b8181101561082157858101830151858201604001528201610805565b506000604082860101526040601f19601f8301168501019250505092915050565b80356001600160a01b038116811461085957600080fd5b919050565b6000806040838503121561087157600080fd5b61087a83610842565b946020939093013593505050565b60008060006060848603121561089d57600080fd5b6108a684610842565b92506108b460208501610842565b9150604084013590509250925092565b6000602082840312156108d657600080fd5b5035919050565b6000602082840312156108ef57600080fd5b6108f882610842565b9392505050565b6000806040838503121561091257600080fd5b61091b83610842565b915061092960208401610842565b90509250929050565b600181811c9082168061094657607f821691505b60208210810361096657634e487b7160e01b600052602260045260246000fd5b50919050565b8082018082111561026657634e487b7160e01b600052601160045260246000fdfea2646970667358221220a31b84fa065957a22734991eaf24464b5d46d23d735d04a39ede20d158ee636b64736f6c63430008110033a26469706673582212208e805ca5020560306114ea230379e2bbf999f6d7e7d4e42183152f2903c727b164736f6c63430008110033",
  "devdoc": {
    "kind": "dev",
    "methods": {},
    "version": 1
  },
  "userdoc": {
    "kind": "user",
    "methods": {},
    "version": 1
  },
  "storageLayout": {
    "storage": [],
    "types": null
  }
}