{
  "address": "0x764eDA8EeDFA5d3352Cfe17e2500841E970189bf",
  "abi": [
    {
      "inputs": [
        {
          "internalType": "address",
          "name": "_tokenFactoryAddress",
          "type": "address"
        }
      ],
      "stateMutability": "nonpayable",
      "type": "constructor"
    },
    {
      "anonymous": false,
      "inputs": [
        {
          "indexed": true,
          "internalType": "address",
          "name": "previousOwner",
          "type": "address"
        },
        {
          "indexed": true,
          "internalType": "address",
          "name": "newOwner",
          "type": "address"
        }
      ],
      "name": "OwnershipTransferred",
      "type": "event"
    },
    {
      "inputs": [
        {
          "internalType": "address",
          "name": "erc20Address",
          "type": "address"
        },
        {
          "internalType": "uint256",
          "name": "amount",
          "type": "uint256"
        }
      ],
      "name": "burnERC20",
      "outputs": [],
      "stateMutability": "payable",
      "type": "function"
    },
    {
      "inputs": [
        {
          "internalType": "address",
          "name": "",
          "type": "address"
        }
      ],
      "name": "createdTokens",
      "outputs": [
        {
          "internalType": "uint256",
          "name": "collectedAmount",
          "type": "uint256"
        },
        {
          "internalType": "bool",
          "name": "exists",
          "type": "bool"
        }
      ],
      "stateMutability": "view",
      "type": "function"
    },
    {
      "inputs": [
        {
          "internalType": "address",
          "name": "nftAddress",
          "type": "address"
        },
        {
          "internalType": "uint256",
          "name": "nftId",
          "type": "uint256"
        },
        {
          "internalType": "string",
          "name": "tokenName",
          "type": "string"
        },
        {
          "internalType": "string",
          "name": "tokenSymbol",
          "type": "string"
        },
        {
          "internalType": "uint256",
          "name": "initialSupply",
          "type": "uint256"
        }
      ],
      "name": "depositNFTAndCreateToken",
      "outputs": [],
      "stateMutability": "nonpayable",
      "type": "function"
    },
    {
      "inputs": [
        {
          "internalType": "address",
          "name": "erc20Address",
          "type": "address"
        }
      ],
      "name": "getTokenCurrentValue",
      "outputs": [
        {
          "internalType": "uint256",
          "name": "",
          "type": "uint256"
        }
      ],
      "stateMutability": "view",
      "type": "function"
    },
    {
      "inputs": [
        {
          "internalType": "address",
          "name": "",
          "type": "address"
        },
        {
          "internalType": "uint256",
          "name": "",
          "type": "uint256"
        }
      ],
      "name": "nftToToken",
      "outputs": [
        {
          "internalType": "address",
          "name": "nftAddress",
          "type": "address"
        },
        {
          "internalType": "uint256",
          "name": "nftId",
          "type": "uint256"
        },
        {
          "internalType": "address",
          "name": "erc20Address",
          "type": "address"
        }
      ],
      "stateMutability": "view",
      "type": "function"
    },
    {
      "inputs": [],
      "name": "owner",
      "outputs": [
        {
          "internalType": "address",
          "name": "",
          "type": "address"
        }
      ],
      "stateMutability": "view",
      "type": "function"
    },
    {
      "inputs": [],
      "name": "renounceOwnership",
      "outputs": [],
      "stateMutability": "nonpayable",
      "type": "function"
    },
    {
      "inputs": [],
      "name": "tokenFactory",
      "outputs": [
        {
          "internalType": "contract ERC20TokenFactory",
          "name": "",
          "type": "address"
        }
      ],
      "stateMutability": "view",
      "type": "function"
    },
    {
      "inputs": [
        {
          "internalType": "address",
          "name": "newOwner",
          "type": "address"
        }
      ],
      "name": "transferOwnership",
      "outputs": [],
      "stateMutability": "nonpayable",
      "type": "function"
    },
    {
      "stateMutability": "payable",
      "type": "receive"
    }
  ],
  "transactionHash": "0x848157f23f8f50efa6ac51d7518baff01a21a511bdffa084e7ba4248646bfaaa",
  "args": [
    "0xcB38deA1Fed0cE30841dcF93860F0B04AB819D9f"
  ],
  "numDeployments": 1,
  "solcInputHash": "7b5f8488a18f8708d842cbc7685d86e8",
  "bytecode": "0x608060405234801561001057600080fd5b50604051610c29380380610c2983398101604081905261002f916100ad565b6100383361005d565b600180546001600160a01b0319166001600160a01b03929092169190911790556100dd565b600080546001600160a01b038381166001600160a01b0319831681178455604051919092169283917f8be0079c531659141344cd1fd0a4f28419497f9722a3daafe3b4186f6b6457e09190a35050565b6000602082840312156100bf57600080fd5b81516001600160a01b03811681146100d657600080fd5b9392505050565b610b3d806100ec6000396000f3fe60806040526004361061008a5760003560e01c8063954b8ea911610059578063954b8ea914610125578063b31261031461019f578063e3f91f3f146101eb578063e77772fe1461020b578063f2fde38b1461022b57600080fd5b80631eeece0614610096578063715018a6146100ab57806385ad3e51146100c05780638da5cb5b146100f357600080fd5b3661009157005b600080fd5b6100a96100a436600461085a565b61024b565b005b3480156100b757600080fd5b506100a96104dc565b3480156100cc57600080fd5b506100e06100db366004610886565b6104f0565b6040519081526020015b60405180910390f35b3480156100ff57600080fd5b506000546001600160a01b03165b6040516001600160a01b0390911681526020016100ea565b34801561013157600080fd5b5061017561014036600461085a565b600260208181526000938452604080852090915291835291208054600182015491909201546001600160a01b03928316921683565b604080516001600160a01b03948516815260208101939093529216918101919091526060016100ea565b3480156101ab57600080fd5b506101d66101ba366004610886565b6003602052600090815260409020805460019091015460ff1682565b604080519283529015156020830152016100ea565b3480156101f757600080fd5b506100a961020636600461094d565b610589565b34801561021757600080fd5b5060015461010d906001600160a01b031681565b34801561023757600080fd5b506100a9610246366004610886565b610722565b6001600160a01b03821660009081526003602052604090206001015460ff166102ca5760405162461bcd60e51b815260206004820152602660248201527f546f6b656e20776173206e6f742063726561746564206279207468697320636f6044820152651b9d1c9858dd60d21b60648201526084015b60405180910390fd5b6040516323b872dd60e01b81523360048201523060248201526044810182905282906001600160a01b038216906323b872dd906064016020604051808303816000875af115801561031f573d6000803e3d6000fd5b505050506040513d601f19601f8201168201806040525081019061034391906109d5565b506000816001600160a01b03166318160ddd6040518163ffffffff1660e01b8152600401602060405180830381865afa158015610384573d6000803e3d6000fd5b505050506040513d601f19601f820116820180604052508101906103a891906109f7565b604051630852cd8d60e31b8152600481018590529091506001600160a01b038316906342966c6890602401600060405180830381600087803b1580156103ed57600080fd5b505af1158015610401573d6000803e3d6000fd5b505050506001600160a01b038416600090815260036020526040812054829061042b908690610a10565b6104359190610a3b565b9050600080336001600160a01b03168360405160006040518083038185875af1925050503d8060008114610485576040519150601f19603f3d011682016040523d82523d6000602084013e61048a565b606091505b5091509150816104d35760405162461bcd60e51b81526020600482015260146024820152732330b4b632b2103a379039b2b7321022ba3432b960611b60448201526064016102c1565b50505050505050565b6104e461079b565b6104ee60006107f5565b565b6000808290506000816001600160a01b03166318160ddd6040518163ffffffff1660e01b8152600401602060405180830381865afa158015610536573d6000803e3d6000fd5b505050506040513d601f19601f8201168201806040525081019061055a91906109f7565b6001600160a01b038516600090815260036020526040902054909150610581908290610a3b565b949350505050565b6040516323b872dd60e01b81523360048201523060248201526044810185905285906001600160a01b038216906323b872dd90606401600060405180830381600087803b1580156105d957600080fd5b505af11580156105ed573d6000803e3d6000fd5b50506001546040516334f359f960e01b8152600093506001600160a01b0390911691506334f359f99061062a908890889088903390600401610aa3565b6020604051808303816000875af1158015610649573d6000803e3d6000fd5b505050506040513d601f19601f8201168201806040525081019061066d9190610aea565b604080516060810182526001600160a01b03998a1680825260208083018b8152948c16838501818152600093845260028084528685209d85529c835285842094518554908f166001600160a01b03199182161786559651600180870191909155905194909c01805494909d169390951692909217909a55815180830183526103e881528082018a8152938b5260039091529820975188555196909501805496151560ff19909716969096179095555050505050565b61072a61079b565b6001600160a01b03811661078f5760405162461bcd60e51b815260206004820152602660248201527f4f776e61626c653a206e6577206f776e657220697320746865207a65726f206160448201526564647265737360d01b60648201526084016102c1565b610798816107f5565b50565b6000546001600160a01b031633146104ee5760405162461bcd60e51b815260206004820181905260248201527f4f776e61626c653a2063616c6c6572206973206e6f7420746865206f776e657260448201526064016102c1565b600080546001600160a01b038381166001600160a01b0319831681178455604051919092169283917f8be0079c531659141344cd1fd0a4f28419497f9722a3daafe3b4186f6b6457e09190a35050565b6001600160a01b038116811461079857600080fd5b6000806040838503121561086d57600080fd5b823561087881610845565b946020939093013593505050565b60006020828403121561089857600080fd5b81356108a381610845565b9392505050565b634e487b7160e01b600052604160045260246000fd5b600082601f8301126108d157600080fd5b813567ffffffffffffffff808211156108ec576108ec6108aa565b604051601f8301601f19908116603f01168101908282118183101715610914576109146108aa565b8160405283815286602085880101111561092d57600080fd5b836020870160208301376000602085830101528094505050505092915050565b600080600080600060a0868803121561096557600080fd5b853561097081610845565b945060208601359350604086013567ffffffffffffffff8082111561099457600080fd5b6109a089838a016108c0565b945060608801359150808211156109b657600080fd5b506109c3888289016108c0565b95989497509295608001359392505050565b6000602082840312156109e757600080fd5b815180151581146108a357600080fd5b600060208284031215610a0957600080fd5b5051919050565b8082028115828204841417610a3557634e487b7160e01b600052601160045260246000fd5b92915050565b600082610a5857634e487b7160e01b600052601260045260246000fd5b500490565b6000815180845260005b81811015610a8357602081850181015186830182015201610a67565b506000602082860101526020601f19601f83011685010191505092915050565b608081526000610ab66080830187610a5d565b8281036020840152610ac88187610a5d565b604084019590955250506001600160a01b039190911660609091015292915050565b600060208284031215610afc57600080fd5b81516108a38161084556fea264697066735822122063d1528e07bd3ce2e43b733fa56a188034b2c3aab57d0c36bace7130c9c28c3364736f6c63430008110033",
  "devdoc": {
    "kind": "dev",
    "methods": {
      "owner()": {
        "details": "Returns the address of the current owner."
      },
      "renounceOwnership()": {
        "details": "Leaves the contract without owner. It will not be possible to call `onlyOwner` functions. Can only be called by the current owner. NOTE: Renouncing ownership will leave the contract without an owner, thereby disabling any functionality that is only available to the owner."
      },
      "transferOwnership(address)": {
        "details": "Transfers ownership of the contract to a new account (`newOwner`). Can only be called by the current owner."
      }
    },
    "version": 1
  },
  "userdoc": {
    "kind": "user",
    "methods": {},
    "version": 1
  },
  "storageLayout": {
    "storage": [
      {
        "astId": 7,
        "contract": "contracts/FractionalizeNFTContract.sol:FractionalizeNFT",
        "label": "_owner",
        "offset": 0,
        "slot": "0",
        "type": "t_address"
      },
      {
        "astId": 1030,
        "contract": "contracts/FractionalizeNFTContract.sol:FractionalizeNFT",
        "label": "tokenFactory",
        "offset": 0,
        "slot": "1",
        "type": "t_contract(ERC20TokenFactory)1025"
      },
      {
        "astId": 1053,
        "contract": "contracts/FractionalizeNFTContract.sol:FractionalizeNFT",
        "label": "nftToToken",
        "offset": 0,
        "slot": "2",
        "type": "t_mapping(t_address,t_mapping(t_uint256,t_struct(NFTDetails)1037_storage))"
      },
      {
        "astId": 1058,
        "contract": "contracts/FractionalizeNFTContract.sol:FractionalizeNFT",
        "label": "createdTokens",
        "offset": 0,
        "slot": "3",
        "type": "t_mapping(t_address,t_struct(ERC20Details)1042_storage)"
      }
    ],
    "types": {
      "t_address": {
        "encoding": "inplace",
        "label": "address",
        "numberOfBytes": "20"
      },
      "t_bool": {
        "encoding": "inplace",
        "label": "bool",
        "numberOfBytes": "1"
      },
      "t_contract(ERC20TokenFactory)1025": {
        "encoding": "inplace",
        "label": "contract ERC20TokenFactory",
        "numberOfBytes": "20"
      },
      "t_mapping(t_address,t_mapping(t_uint256,t_struct(NFTDetails)1037_storage))": {
        "encoding": "mapping",
        "key": "t_address",
        "label": "mapping(address => mapping(uint256 => struct FractionalizeNFT.NFTDetails))",
        "numberOfBytes": "32",
        "value": "t_mapping(t_uint256,t_struct(NFTDetails)1037_storage)"
      },
      "t_mapping(t_address,t_struct(ERC20Details)1042_storage)": {
        "encoding": "mapping",
        "key": "t_address",
        "label": "mapping(address => struct FractionalizeNFT.ERC20Details)",
        "numberOfBytes": "32",
        "value": "t_struct(ERC20Details)1042_storage"
      },
      "t_mapping(t_uint256,t_struct(NFTDetails)1037_storage)": {
        "encoding": "mapping",
        "key": "t_uint256",
        "label": "mapping(uint256 => struct FractionalizeNFT.NFTDetails)",
        "numberOfBytes": "32",
        "value": "t_struct(NFTDetails)1037_storage"
      },
      "t_struct(ERC20Details)1042_storage": {
        "encoding": "inplace",
        "label": "struct FractionalizeNFT.ERC20Details",
        "members": [
          {
            "astId": 1039,
            "contract": "contracts/FractionalizeNFTContract.sol:FractionalizeNFT",
            "label": "collectedAmount",
            "offset": 0,
            "slot": "0",
            "type": "t_uint256"
          },
          {
            "astId": 1041,
            "contract": "contracts/FractionalizeNFTContract.sol:FractionalizeNFT",
            "label": "exists",
            "offset": 0,
            "slot": "1",
            "type": "t_bool"
          }
        ],
        "numberOfBytes": "64"
      },
      "t_struct(NFTDetails)1037_storage": {
        "encoding": "inplace",
        "label": "struct FractionalizeNFT.NFTDetails",
        "members": [
          {
            "astId": 1032,
            "contract": "contracts/FractionalizeNFTContract.sol:FractionalizeNFT",
            "label": "nftAddress",
            "offset": 0,
            "slot": "0",
            "type": "t_address"
          },
          {
            "astId": 1034,
            "contract": "contracts/FractionalizeNFTContract.sol:FractionalizeNFT",
            "label": "nftId",
            "offset": 0,
            "slot": "1",
            "type": "t_uint256"
          },
          {
            "astId": 1036,
            "contract": "contracts/FractionalizeNFTContract.sol:FractionalizeNFT",
            "label": "erc20Address",
            "offset": 0,
            "slot": "2",
            "type": "t_address"
          }
        ],
        "numberOfBytes": "96"
      },
      "t_uint256": {
        "encoding": "inplace",
        "label": "uint256",
        "numberOfBytes": "32"
      }
    }
  }
}